{
  "_format": "hh-sol-artifact-1",
  "contractName": "BscDynasetTvlOracle",
  "sourceName": "contracts/BscDynasetTvlOracle.sol",
  "abi": [
    {
      "inputs": [
        {
          "internalType": "address",
          "name": "_dynaset",
          "type": "address"
        },
        {
          "internalType": "address",
          "name": "_usdc",
          "type": "address"
        },
        {
          "internalType": "address",
          "name": "_usdcOracle",
          "type": "address"
        }
      ],
      "stateMutability": "nonpayable",
      "type": "constructor"
    },
    {
      "anonymous": false,
      "inputs": [
        {
          "indexed": true,
          "internalType": "bytes32",
          "name": "role",
          "type": "bytes32"
        },
        {
          "indexed": true,
          "internalType": "bytes32",
          "name": "previousAdminRole",
          "type": "bytes32"
        },
        {
          "indexed": true,
          "internalType": "bytes32",
          "name": "newAdminRole",
          "type": "bytes32"
        }
      ],
      "name": "RoleAdminChanged",
      "type": "event"
    },
    {
      "anonymous": false,
      "inputs": [
        {
          "indexed": true,
          "internalType": "bytes32",
          "name": "role",
          "type": "bytes32"
        },
        {
          "indexed": true,
          "internalType": "address",
          "name": "account",
          "type": "address"
        },
        {
          "indexed": true,
          "internalType": "address",
          "name": "sender",
          "type": "address"
        }
      ],
      "name": "RoleGranted",
      "type": "event"
    },
    {
      "anonymous": false,
      "inputs": [
        {
          "indexed": true,
          "internalType": "bytes32",
          "name": "role",
          "type": "bytes32"
        },
        {
          "indexed": true,
          "internalType": "address",
          "name": "account",
          "type": "address"
        },
        {
          "indexed": true,
          "internalType": "address",
          "name": "sender",
          "type": "address"
        }
      ],
      "name": "RoleRevoked",
      "type": "event"
    },
    {
      "inputs": [],
      "name": "DEFAULT_ADMIN_ROLE",
      "outputs": [
        {
          "internalType": "bytes32",
          "name": "",
          "type": "bytes32"
        }
      ],
      "stateMutability": "view",
      "type": "function"
    },
    {
      "inputs": [],
      "name": "DYNASET_DECIMALS",
      "outputs": [
        {
          "internalType": "uint256",
          "name": "",
          "type": "uint256"
        }
      ],
      "stateMutability": "view",
      "type": "function"
    },
    {
      "inputs": [],
      "name": "ORACLE_ADMIN",
      "outputs": [
        {
          "internalType": "bytes32",
          "name": "",
          "type": "bytes32"
        }
      ],
      "stateMutability": "view",
      "type": "function"
    },
    {
      "inputs": [],
      "name": "RATIO_PRECISION",
      "outputs": [
        {
          "internalType": "uint256",
          "name": "",
          "type": "uint256"
        }
      ],
      "stateMutability": "view",
      "type": "function"
    },
    {
      "inputs": [],
      "name": "USDC",
      "outputs": [
        {
          "internalType": "address",
          "name": "",
          "type": "address"
        }
      ],
      "stateMutability": "view",
      "type": "function"
    },
    {
      "inputs": [],
      "name": "USDC_DECIMALS",
      "outputs": [
        {
          "internalType": "uint256",
          "name": "",
          "type": "uint256"
        }
      ],
      "stateMutability": "view",
      "type": "function"
    },
    {
      "inputs": [],
      "name": "dynaset",
      "outputs": [
        {
          "internalType": "contract IDynaset",
          "name": "",
          "type": "address"
        }
      ],
      "stateMutability": "view",
      "type": "function"
    },
    {
      "inputs": [],
      "name": "dynasetTokenUsdcRatios",
      "outputs": [
        {
          "internalType": "address[]",
          "name": "",
          "type": "address[]"
        },
        {
          "internalType": "uint256[]",
          "name": "",
          "type": "uint256[]"
        },
        {
          "internalType": "uint256",
          "name": "",
          "type": "uint256"
        }
      ],
      "stateMutability": "view",
      "type": "function"
    },
    {
      "inputs": [],
      "name": "dynasetTvlUsdc",
      "outputs": [
        {
          "internalType": "uint256",
          "name": "totalUSDC",
          "type": "uint256"
        }
      ],
      "stateMutability": "view",
      "type": "function"
    },
    {
      "inputs": [],
      "name": "dynasetUsdcValuePerShare",
      "outputs": [
        {
          "internalType": "uint256",
          "name": "",
          "type": "uint256"
        }
      ],
      "stateMutability": "view",
      "type": "function"
    },
    {
      "inputs": [
        {
          "internalType": "bytes32",
          "name": "role",
          "type": "bytes32"
        }
      ],
      "name": "getRoleAdmin",
      "outputs": [
        {
          "internalType": "bytes32",
          "name": "",
          "type": "bytes32"
        }
      ],
      "stateMutability": "view",
      "type": "function"
    },
    {
      "inputs": [
        {
          "internalType": "bytes32",
          "name": "role",
          "type": "bytes32"
        },
        {
          "internalType": "address",
          "name": "account",
          "type": "address"
        }
      ],
      "name": "grantRole",
      "outputs": [],
      "stateMutability": "nonpayable",
      "type": "function"
    },
    {
      "inputs": [
        {
          "internalType": "bytes32",
          "name": "role",
          "type": "bytes32"
        },
        {
          "internalType": "address",
          "name": "account",
          "type": "address"
        }
      ],
      "name": "hasRole",
      "outputs": [
        {
          "internalType": "bool",
          "name": "",
          "type": "bool"
        }
      ],
      "stateMutability": "view",
      "type": "function"
    },
    {
      "inputs": [
        {
          "internalType": "bytes32",
          "name": "role",
          "type": "bytes32"
        },
        {
          "internalType": "address",
          "name": "account",
          "type": "address"
        }
      ],
      "name": "renounceRole",
      "outputs": [],
      "stateMutability": "nonpayable",
      "type": "function"
    },
    {
      "inputs": [
        {
          "internalType": "bytes32",
          "name": "role",
          "type": "bytes32"
        },
        {
          "internalType": "address",
          "name": "account",
          "type": "address"
        }
      ],
      "name": "revokeRole",
      "outputs": [],
      "stateMutability": "nonpayable",
      "type": "function"
    },
    {
      "inputs": [
        {
          "internalType": "bytes4",
          "name": "interfaceId",
          "type": "bytes4"
        }
      ],
      "name": "supportsInterface",
      "outputs": [
        {
          "internalType": "bool",
          "name": "",
          "type": "bool"
        }
      ],
      "stateMutability": "view",
      "type": "function"
    },
    {
      "inputs": [
        {
          "internalType": "address",
          "name": "_token",
          "type": "address"
        },
        {
          "internalType": "uint256",
          "name": "_amount",
          "type": "uint256"
        }
      ],
      "name": "tokenUsdcValue",
      "outputs": [
        {
          "internalType": "uint256",
          "name": "usdcValue",
          "type": "uint256"
        }
      ],
      "stateMutability": "view",
      "type": "function"
    },
    {
      "inputs": [],
      "name": "updateDynasetTokenPrices",
      "outputs": [
        {
          "internalType": "bool[]",
          "name": "updates",
          "type": "bool[]"
        }
      ],
      "stateMutability": "nonpayable",
      "type": "function"
    },
    {
      "inputs": [],
      "name": "usdcOracle",
      "outputs": [
        {
          "internalType": "contract IUsdcOracle",
          "name": "",
          "type": "address"
        }
      ],
      "stateMutability": "view",
      "type": "function"
    }
  ],
  "bytecode": "0x60e06040523480156200001157600080fd5b50604051620019b0380380620019b083398101604081905262000034916200026b565b6001600160a01b038316620000835760405162461bcd60e51b815260206004820152601060248201526f11549497d116539054d15517d253925560821b60448201526064015b60405180910390fd5b6001600160a01b038216620000cb5760405162461bcd60e51b815260206004820152600d60248201526c11549497d554d110d7d2539255609a1b60448201526064016200007a565b6001600160a01b038116620001235760405162461bcd60e51b815260206004820152601360248201527f4552525f555344434f5241434c455f494e49540000000000000000000000000060448201526064016200007a565b6001600160a01b0380841660805282811660a052811660c052604051620001959062000172906020016020808252600c908201526b27a920a1a622afa0a226a4a760a11b604082015260600190565b60405160208183030381529060405280519060200120336200019e60201b60201c565b505050620002b5565b620001aa8282620001ae565b5050565b6000828152602081815260408083206001600160a01b038516845290915290205460ff16620001aa576000828152602081815260408083206001600160a01b03851684529091529020805460ff191660011790556200020a3390565b6001600160a01b0316816001600160a01b0316837f2f8788117e7eff1d82e926ec794901d17c78024a50270940304540a733656f0d60405160405180910390a45050565b80516001600160a01b03811681146200026657600080fd5b919050565b6000806000606084860312156200028157600080fd5b6200028c846200024e565b92506200029c602085016200024e565b9150620002ac604085016200024e565b90509250925092565b60805160a05160c0516116856200032b6000396000818161026f0152818161047f0152818161074c01528181610a470152610b46015260008181610225015281816103f001526109c90152600081816101e60152818161031101528181610837015281816109310152610b7501526116856000f3fe608060405234801561001057600080fd5b50600436106101215760003560e01c806389a30271116100ad578063c1419def11610071578063c1419def146101be578063d32867d014610291578063d547741f146102a0578063d66d13e0146102b3578063f101503a146102bb57600080fd5b806389a302711461022057806391d148541461024757806398e96f561461025a578063a217fddf14610262578063a382fe621461026a57600080fd5b806336568abe116100f457806336568abe146101ab5780635e87dce6146101be5780636169b288146101c6578063639433e6146101d9578063838626a6146101e157600080fd5b806301ffc9a714610126578063248a9ca31461014e5780632e4d3a631461017f5780632f2ff15d14610196575b600080fd5b610139610134366004610f5e565b6102d0565b60405190151581526020015b60405180910390f35b61017161015c366004610f88565b60009081526020819052604090206001015490565b604051908152602001610145565b610187610307565b60405161014593929190610fe5565b6101a96101a436600461105a565b610676565b005b6101a96101b936600461105a565b6106a0565b610171601281565b6101716101d436600461108a565b610723565b6101716107c0565b6102087f000000000000000000000000000000000000000000000000000000000000000081565b6040516001600160a01b039091168152602001610145565b6102087f000000000000000000000000000000000000000000000000000000000000000081565b61013961025536600461105a565b610809565b610171610832565b610171600081565b6102087f000000000000000000000000000000000000000000000000000000000000000081565b610171670de0b6b3a764000081565b6101a96102ae36600461105a565b610905565b61017161092a565b6102c3610b42565b60405161014591906110b6565b60006001600160e01b03198216637965db0b60e01b148061030157506301ffc9a760e01b6001600160e01b03198316145b92915050565b60608060008060007f00000000000000000000000000000000000000000000000000000000000000006001600160a01b031663d73cc4df6040518163ffffffff1660e01b8152600401600060405180830381865afa15801561036d573d6000803e3d6000fd5b505050506040513d6000823e601f3d908101601f1916820160405261039591908101906111db565b91509150600080835167ffffffffffffffff8111156103b6576103b66110fc565b6040519080825280602002602001820160405280156103df578160200160208202803683370190505b50905060005b84518110156105aa577f00000000000000000000000000000000000000000000000000000000000000006001600160a01b031685828151811061042a5761042a611296565b60200260200101516001600160a01b03160361047d5783818151811061045257610452611296565b602002602001015182828151811061046c5761046c611296565b602002602001018181525050610571565b7f00000000000000000000000000000000000000000000000000000000000000006001600160a01b0316636169b2888683815181106104be576104be611296565b60200260200101518684815181106104d8576104d8611296565b60200260200101516040518363ffffffff1660e01b81526004016105119291906001600160a01b03929092168252602082015260400190565b6040805180830381865afa15801561052d573d6000803e3d6000fd5b505050506040513d601f19601f8201168201806040525081019061055191906112ac565b5082828151811061056457610564611296565b6020026020010181815250505b81818151811061058357610583611296565b60200260200101518361059691906112e6565b9250806105a2816112fe565b9150506103e5565b506000845167ffffffffffffffff8111156105c7576105c76110fc565b6040519080825280602002602001820160405280156105f0578160200160208202803683370190505b50905060005b85518110156106665783670de0b6b3a764000084838151811061061b5761061b611296565b602002602001015161062d9190611317565b6106379190611336565b82828151811061064957610649611296565b60209081029190910101528061065e816112fe565b9150506105f6565b5093979396509094509192505050565b60008281526020819052604090206001015461069181610c61565b61069b8383610c6e565b505050565b6001600160a01b03811633146107155760405162461bcd60e51b815260206004820152602f60248201527f416363657373436f6e74726f6c3a2063616e206f6e6c792072656e6f756e636560448201526e103937b632b9903337b91039b2b63360891b60648201526084015b60405180910390fd5b61071f8282610cf2565b5050565b604051630c2d365160e31b81526001600160a01b038381166004830152602482018390526000917f000000000000000000000000000000000000000000000000000000000000000090911690636169b288906044016040805180830381865afa158015610794573d6000803e3d6000fd5b505050506040513d601f19601f820116820180604052508101906107b891906112ac565b509392505050565b6040516020016107f0906020808252600c908201526b27a920a1a622afa0a226a4a760a11b604082015260600190565b6040516020818303038152906040528051906020012081565b6000918252602082815260408084206001600160a01b0393909316845291905290205460ff1690565b6000807f00000000000000000000000000000000000000000000000000000000000000006001600160a01b03166318160ddd6040518163ffffffff1660e01b8152600401602060405180830381865afa158015610893573d6000803e3d6000fd5b505050506040513d601f19601f820116820180604052508101906108b79190611358565b905060006108c361092a565b905060008260126108d481806112e6565b6108de9190611371565b6108e990600a61146c565b6108f39084611317565b6108fd9190611336565b949350505050565b60008281526020819052604090206001015461092081610c61565b61069b8383610cf2565b60008060007f00000000000000000000000000000000000000000000000000000000000000006001600160a01b031663d73cc4df6040518163ffffffff1660e01b8152600401600060405180830381865afa15801561098d573d6000803e3d6000fd5b505050506040513d6000823e601f3d908101601f191682016040526109b591908101906111db565b90925090506000805b8351811015610b3b577f00000000000000000000000000000000000000000000000000000000000000006001600160a01b0316848281518110610a0357610a03611296565b60200260200101516001600160a01b031603610a4557828181518110610a2b57610a2b611296565b602002602001015185610a3e91906112e6565b9450610b29565b7f00000000000000000000000000000000000000000000000000000000000000006001600160a01b0316636169b288858381518110610a8657610a86611296565b6020026020010151858481518110610aa057610aa0611296565b60200260200101516040518363ffffffff1660e01b8152600401610ad99291906001600160a01b03929092168252602082015260400190565b6040805180830381865afa158015610af5573d6000803e3d6000fd5b505050506040513d601f19601f82011682018060405250810190610b1991906112ac565b509150610b2682866112e6565b94505b80610b33816112fe565b9150506109be565b5050505090565b60607f00000000000000000000000000000000000000000000000000000000000000006001600160a01b031663de5b6c617f00000000000000000000000000000000000000000000000000000000000000006001600160a01b031663cc77828d6040518163ffffffff1660e01b8152600401600060405180830381865afa158015610bd1573d6000803e3d6000fd5b505050506040513d6000823e601f3d908101601f19168201604052610bf99190810190611478565b6040518263ffffffff1660e01b8152600401610c1591906114ad565b6000604051808303816000875af1158015610c34573d6000803e3d6000fd5b505050506040513d6000823e601f3d908101601f19168201604052610c5c91908101906114c0565b905090565b610c6b8133610d57565b50565b610c788282610809565b61071f576000828152602081815260408083206001600160a01b03851684529091529020805460ff19166001179055610cae3390565b6001600160a01b0316816001600160a01b0316837f2f8788117e7eff1d82e926ec794901d17c78024a50270940304540a733656f0d60405160405180910390a45050565b610cfc8282610809565b1561071f576000828152602081815260408083206001600160a01b0385168085529252808320805460ff1916905551339285917ff6391f5c32d9c69d2a47ea670b442974b53935d1edc7fd64eb21e047a839171b9190a45050565b610d618282610809565b61071f57610d79816001600160a01b03166014610dbb565b610d84836020610dbb565b604051602001610d95929190611590565b60408051601f198184030181529082905262461bcd60e51b825261070c91600401611605565b60606000610dca836002611317565b610dd59060026112e6565b67ffffffffffffffff811115610ded57610ded6110fc565b6040519080825280601f01601f191660200182016040528015610e17576020820181803683370190505b509050600360fc1b81600081518110610e3257610e32611296565b60200101906001600160f81b031916908160001a905350600f60fb1b81600181518110610e6157610e61611296565b60200101906001600160f81b031916908160001a9053506000610e85846002611317565b610e909060016112e6565b90505b6001811115610f08576f181899199a1a9b1b9c1cb0b131b232b360811b85600f1660108110610ec457610ec4611296565b1a60f81b828281518110610eda57610eda611296565b60200101906001600160f81b031916908160001a90535060049490941c93610f0181611638565b9050610e93565b508315610f575760405162461bcd60e51b815260206004820181905260248201527f537472696e67733a20686578206c656e67746820696e73756666696369656e74604482015260640161070c565b9392505050565b600060208284031215610f7057600080fd5b81356001600160e01b031981168114610f5757600080fd5b600060208284031215610f9a57600080fd5b5035919050565b600081518084526020808501945080840160005b83811015610fda5781516001600160a01b031687529582019590820190600101610fb5565b509495945050505050565b606081526000610ff86060830186610fa1565b82810360208481019190915285518083528682019282019060005b8181101561102f57845183529383019391830191600101611013565b5050809350505050826040830152949350505050565b6001600160a01b0381168114610c6b57600080fd5b6000806040838503121561106d57600080fd5b82359150602083013561107f81611045565b809150509250929050565b6000806040838503121561109d57600080fd5b82356110a881611045565b946020939093013593505050565b6020808252825182820181905260009190848201906040850190845b818110156110f05783511515835292840192918401916001016110d2565b50909695505050505050565b634e487b7160e01b600052604160045260246000fd5b604051601f8201601f1916810167ffffffffffffffff8111828210171561113b5761113b6110fc565b604052919050565b600067ffffffffffffffff82111561115d5761115d6110fc565b5060051b60200190565b600082601f83011261117857600080fd5b8151602061118d61118883611143565b611112565b82815260059290921b840181019181810190868411156111ac57600080fd5b8286015b848110156111d05780516111c381611045565b83529183019183016111b0565b509695505050505050565b600080604083850312156111ee57600080fd5b825167ffffffffffffffff8082111561120657600080fd5b61121286838701611167565b935060209150818501518181111561122957600080fd5b85019050601f8101861361123c57600080fd5b805161124a61118882611143565b81815260059190911b8201830190838101908883111561126957600080fd5b928401925b828410156112875783518252928401929084019061126e565b80955050505050509250929050565b634e487b7160e01b600052603260045260246000fd5b600080604083850312156112bf57600080fd5b505080516020909101519092909150565b634e487b7160e01b600052601160045260246000fd5b600082198211156112f9576112f96112d0565b500190565b600060018201611310576113106112d0565b5060010190565b6000816000190483118215151615611331576113316112d0565b500290565b60008261135357634e487b7160e01b600052601260045260246000fd5b500490565b60006020828403121561136a57600080fd5b5051919050565b600082821015611383576113836112d0565b500390565b600181815b808511156113c35781600019048211156113a9576113a96112d0565b808516156113b657918102915b93841c939080029061138d565b509250929050565b6000826113da57506001610301565b816113e757506000610301565b81600181146113fd576002811461140757611423565b6001915050610301565b60ff841115611418576114186112d0565b50506001821b610301565b5060208310610133831016604e8410600b8410161715611446575081810a610301565b6114508383611388565b8060001904821115611464576114646112d0565b029392505050565b6000610f5783836113cb565b60006020828403121561148a57600080fd5b815167ffffffffffffffff8111156114a157600080fd5b6108fd84828501611167565b602081526000610f576020830184610fa1565b600060208083850312156114d357600080fd5b825167ffffffffffffffff8111156114ea57600080fd5b8301601f810185136114fb57600080fd5b805161150961118882611143565b81815260059190911b8201830190838101908783111561152857600080fd5b928401925b8284101561155557835180151581146115465760008081fd5b8252928401929084019061152d565b979650505050505050565b60005b8381101561157b578181015183820152602001611563565b8381111561158a576000848401525b50505050565b7f416363657373436f6e74726f6c3a206163636f756e74200000000000000000008152600083516115c8816017850160208801611560565b7001034b99036b4b9b9b4b733903937b6329607d1b60179184019182015283516115f9816028840160208801611560565b01602801949350505050565b6020815260008251806020840152611624816040850160208701611560565b601f01601f19169190910160400192915050565b600081611647576116476112d0565b50600019019056fea2646970667358221220af9cb2605bbcd482e4e4f083103a25ac407959514dab9249e57870bab19bd63b64736f6c634300080f0033",
  "linkReferences": {},
  "deployedLinkReferences": {}
}